{
  "_format": "hh-sol-artifact-1",
  "contractName": "CertificateVerifier",
  "sourceName": "src/CertificateVerifier.sol",
  "abi": [
    {
      "anonymous": false,
      "inputs": [
        {
          "indexed": false,
          "internalType": "string",
          "name": "hash",
          "type": "string"
        },
        {
          "indexed": false,
          "internalType": "address",
          "name": "revokedBy",
          "type": "address"
        }
      ],
      "name": "CertificateRevoked",
      "type": "event"
    },
    {
      "anonymous": false,
      "inputs": [
        {
          "indexed": false,
          "internalType": "string",
          "name": "hash",
          "type": "string"
        },
        {
          "indexed": true,
          "internalType": "address",
          "name": "issuer",
          "type": "address"
        },
        {
          "indexed": false,
          "internalType": "string",
          "name": "studentName",
          "type": "string"
        },
        {
          "indexed": false,
          "internalType": "string",
          "name": "courseName",
          "type": "string"
        },
        {
          "indexed": false,
          "internalType": "string",
          "name": "issuedDate",
          "type": "string"
        },
        {
          "indexed": false,
          "internalType": "string",
          "name": "issuedBy",
          "type": "string"
        }
      ],
      "name": "CertificateStored",
      "type": "event"
    },
    {
      "inputs": [
        {
          "internalType": "string",
          "name": "",
          "type": "string"
        }
      ],
      "name": "issuers",
      "outputs": [
        {
          "internalType": "address",
          "name": "",
          "type": "address"
        }
      ],
      "stateMutability": "view",
      "type": "function"
    },
    {
      "inputs": [
        {
          "internalType": "string",
          "name": "hash",
          "type": "string"
        }
      ],
      "name": "revokeCertificate",
      "outputs": [],
      "stateMutability": "nonpayable",
      "type": "function"
    },
    {
      "inputs": [
        {
          "internalType": "string",
          "name": "",
          "type": "string"
        }
      ],
      "name": "revoked",
      "outputs": [
        {
          "internalType": "bool",
          "name": "",
          "type": "bool"
        }
      ],
      "stateMutability": "view",
      "type": "function"
    },
    {
      "inputs": [
        {
          "internalType": "string",
          "name": "hash",
          "type": "string"
        },
        {
          "internalType": "string",
          "name": "studentName",
          "type": "string"
        },
        {
          "internalType": "string",
          "name": "courseName",
          "type": "string"
        },
        {
          "internalType": "string",
          "name": "issuedDate",
          "type": "string"
        },
        {
          "internalType": "string",
          "name": "issuedBy",
          "type": "string"
        }
      ],
      "name": "storeCertificate",
      "outputs": [],
      "stateMutability": "nonpayable",
      "type": "function"
    },
    {
      "inputs": [
        {
          "internalType": "string",
          "name": "hash",
          "type": "string"
        }
      ],
      "name": "verifyCertificate",
      "outputs": [
        {
          "internalType": "bool",
          "name": "",
          "type": "bool"
        }
      ],
      "stateMutability": "view",
      "type": "function"
    }
  ],
  "bytecode": "0x608060405234801561001057600080fd5b50610c13806100206000396000f3fe608060405234801561001057600080fd5b50600436106100575760003560e01c8063142e15421461005c5780631816de99146100785780635e17004c146100a85780637970acf5146100d85780638b23d875146100f4575b600080fd5b610076600480360381019061007191906105da565b610124565b005b610092600480360381019061008d9190610768565b6102b7565b60405161009f91906107f2565b60405180910390f35b6100c260048036038101906100bd9190610768565b610300565b6040516100cf9190610828565b60405180910390f35b6100f260048036038101906100ed9190610843565b610336565b005b61010e600480360381019061010991906105da565b6104b0565b60405161011b9190610828565b60405180910390f35b3373ffffffffffffffffffffffffffffffffffffffff166000838360405161014d929190610990565b908152602001604051809103902060009054906101000a900473ffffffffffffffffffffffffffffffffffffffff1673ffffffffffffffffffffffffffffffffffffffff16146101d2576040517f08c379a00000000000000000000000000000000000000000000000000000000081526004016101c990610a06565b60405180910390fd5b600182826040516101e4929190610990565b908152602001604051809103902060009054906101000a900460ff1615610240576040517f08c379a000000000000000000000000000000000000000000000000000000000815260040161023790610a72565b60405180910390fd5b6001808383604051610253929190610990565b908152602001604051809103902060006101000a81548160ff0219169083151502179055507f7b87df98e4ff33f07a9fbda6f93a6b69c498e48444877da8c54a83d3a43aee5b8282336040516102ab93929190610abf565b60405180910390a15050565b6000818051602081018201805184825260208301602085012081835280955050505050506000915054906101000a900473ffffffffffffffffffffffffffffffffffffffff1681565b6001818051602081018201805184825260208301602085012081835280955050505050506000915054906101000a900460ff1681565b600073ffffffffffffffffffffffffffffffffffffffff1660008b8b604051610360929190610990565b908152602001604051809103902060009054906101000a900473ffffffffffffffffffffffffffffffffffffffff1673ffffffffffffffffffffffffffffffffffffffff16146103e5576040517f08c379a00000000000000000000000000000000000000000000000000000000081526004016103dc90610b3d565b60405180910390fd5b3360008b8b6040516103f8929190610990565b908152602001604051809103902060006101000a81548173ffffffffffffffffffffffffffffffffffffffff021916908373ffffffffffffffffffffffffffffffffffffffff1602179055503373ffffffffffffffffffffffffffffffffffffffff167f26a7bd7cf19629ad1332dca29852b514542458c8f19323d7fe7340581ae083048b8b8b8b8b8b8b8b8b8b60405161049c9a99989796959493929190610b5d565b60405180910390a250505050505050505050565b60008073ffffffffffffffffffffffffffffffffffffffff16600084846040516104db929190610990565b908152602001604051809103902060009054906101000a900473ffffffffffffffffffffffffffffffffffffffff1673ffffffffffffffffffffffffffffffffffffffff161415801561055957506001838360405161053b929190610990565b908152602001604051809103902060009054906101000a900460ff16155b905092915050565b6000604051905090565b600080fd5b600080fd5b600080fd5b600080fd5b600080fd5b60008083601f84011261059a57610599610575565b5b8235905067ffffffffffffffff8111156105b7576105b661057a565b5b6020830191508360018202830111156105d3576105d261057f565b5b9250929050565b600080602083850312156105f1576105f061056b565b5b600083013567ffffffffffffffff81111561060f5761060e610570565b5b61061b85828601610584565b92509250509250929050565b600080fd5b6000601f19601f8301169050919050565b7f4e487b7100000000000000000000000000000000000000000000000000000000600052604160045260246000fd5b6106758261062c565b810181811067ffffffffffffffff821117156106945761069361063d565b5b80604052505050565b60006106a7610561565b90506106b3828261066c565b919050565b600067ffffffffffffffff8211156106d3576106d261063d565b5b6106dc8261062c565b9050602081019050919050565b82818337600083830152505050565b600061070b610706846106b8565b61069d565b90508281526020810184848401111561072757610726610627565b5b6107328482856106e9565b509392505050565b600082601f83011261074f5761074e610575565b5b813561075f8482602086016106f8565b91505092915050565b60006020828403121561077e5761077d61056b565b5b600082013567ffffffffffffffff81111561079c5761079b610570565b5b6107a88482850161073a565b91505092915050565b600073ffffffffffffffffffffffffffffffffffffffff82169050919050565b60006107dc826107b1565b9050919050565b6107ec816107d1565b82525050565b600060208201905061080760008301846107e3565b92915050565b60008115159050919050565b6108228161080d565b82525050565b600060208201905061083d6000830184610819565b92915050565b60008060008060008060008060008060a08b8d0312156108665761086561056b565b5b60008b013567ffffffffffffffff81111561088457610883610570565b5b6108908d828e01610584565b9a509a505060208b013567ffffffffffffffff8111156108b3576108b2610570565b5b6108bf8d828e01610584565b985098505060408b013567ffffffffffffffff8111156108e2576108e1610570565b5b6108ee8d828e01610584565b965096505060608b013567ffffffffffffffff81111561091157610910610570565b5b61091d8d828e01610584565b945094505060808b013567ffffffffffffffff8111156109405761093f610570565b5b61094c8d828e01610584565b92509250509295989b9194979a5092959850565b600081905092915050565b60006109778385610960565b93506109848385846106e9565b82840190509392505050565b600061099d82848661096b565b91508190509392505050565b600082825260208201905092915050565b7f4f6e6c7920746865206973737565722063616e207265766f6b65000000000000600082015250565b60006109f0601a836109a9565b91506109fb826109ba565b602082019050919050565b60006020820190508181036000830152610a1f816109e3565b9050919050565b7f416c7265616479207265766f6b65640000000000000000000000000000000000600082015250565b6000610a5c600f836109a9565b9150610a6782610a26565b602082019050919050565b60006020820190508181036000830152610a8b81610a4f565b9050919050565b6000610a9e83856109a9565b9350610aab8385846106e9565b610ab48361062c565b840190509392505050565b60006040820190508181036000830152610ada818587610a92565b9050610ae960208301846107e3565b949350505050565b7f4861736820616c72656164792065786973747300000000000000000000000000600082015250565b6000610b276013836109a9565b9150610b3282610af1565b602082019050919050565b60006020820190508181036000830152610b5681610b1a565b9050919050565b600060a0820190508181036000830152610b78818c8e610a92565b90508181036020830152610b8d818a8c610a92565b90508181036040830152610ba281888a610a92565b90508181036060830152610bb7818688610a92565b90508181036080830152610bcc818486610a92565b90509b9a505050505050505050505056fea264697066735822122054a103cd7d04cd78bc6a3e5a5545853c7fd596396ddccb935423980d5036ff3364736f6c63430008130033",
  "linkReferences": {},
  "deployedLinkReferences": {}
}